:1006EC004D6F6E2E5475652E5765642E5468752E9D
:0C06FC004672692E5361742E53756E2EE9
:10069100022900010223000102270001022D0001AD
:0F06A100022F00000220000002080000012200CA
:10064700120670120730120730758901758C4C75C8
:100657008A12D2AFD2A9D28C7B007A00790A12040F
:090667007CEF70F412000E80EF2C
:10047C008B388A39893AE4F525F52620930D120735
:10048C00300526E52670F4052580F0C3E52694E2B8
:10049C00E5256480948440DEE4F52BF52C3093FD47
:1004AC00E4F525F52630930D1207300526E5267068
:1004BC00F4052580F0C3E5269446E52564809480F8
:1004CC0050037F0122E526241EFFE43525FE7C0027
:1004DC007D641202A5EF14AB38AA39A93A852C8297
:1004EC00852B83120283052CE52C7002052BC394FB
:1004FC0013E52B6480948040A4752201E4F531F55A
:03050C0032FF2299
:10000E00AF1CEF3395E0FEC3740B9FF539E49EF5FC
:10001E0038D3E539940AE53864809480500D120780
:10002E003A0539E53970EA053880E6751E00751F08
:10003E0007E50A14600F1460142402701675080088
:10004E00750913800E75080075092780067508005E
:10005E0075093BAF0CEF3395E0FEEF7802C333CE5C
:10006E0033CED8F9FFAD0DED3395E0FCEF2DF53025
:10007E00EE3CF52FC3E51364809482400B740C257F
:10008E0030F530E4352FF52FAF0FEF3395E0FEEF5F
:10009E007802C333CE33CED8F9FDAC06AF0EEF33B4
:1000AE0095E0FEEFC4F8540FC868FFEEC454F04854
:1000BE00FEEF2DFFEE3CFEAD10ED3395E0FCEF2D87
:1000CE00F521EE3CF520AF11EF3395E0FEEF78020F
:1000DE00C333CE33CED8F9FFAD12ED3395E0FCEF3E
:1000EE002DF528EE3CF527AF15EF3395E0FEEF78B2
:1000FE0002C333CE33CED8F9FDAC06AF14EF339531
:10010E00E0FEEFC4F8540FC868FFEEC454F048FE8A
:10011E00EF2DFFEE3CFEAD16ED3395E0FCEF2DF529
:10012E002EEE3CF52DAF17EF3395E0FEEF7802C3C0
:10013E0033CE33CED8F9FFAD18ED3395E0FCEF2D6D
:10014E00F524EE3CF523AF1AEF3395E0FEEF78027F
:10015E00C333CE33CED8F9FDAC06AF19EF3395E0ED
:10016E00FEEFC4F8540FC868FFEEC454F048FEEF1B
:10017E002DFFEE3CFEAD1BED3395E0FCEF2DF52A89
:06018E00EE3CF5297F00A4
:010194002248
:100195007F8012071E7F321205F9AE29AF2A7D64D2
:1001A5001205F0AE29AF2A7C007D641202A57E00FF
:1001B5007F0ACFCDCFCECCCE1205F2AE29AF2A7CA9
:1001C500007D0A1202A5ED2430FF1205F97F2D12DC
:1001D50005F9AE23AF241205EEAE23AF247C007DD6
:1001E5000A1202A5ED2430FF1205F97F2D1205F93B
:1001F500AE2DAF2E1205EEAE2DAF2E7C007D0A1270
:1002050002A5ED2430FF1205F97F201205F9E52836
:10021500AE277802C333CE33CED8F924E8F58274FD
:10022500063EF583E493FF1205F9E528AE2778022B
:10023500C333CE33CED8F924E9F58274063EF5836F
:10024500E493FF1205F9E528AE277802C333CE33D0
:10025500CED8F924EAF58274063EF583E493FF12BD
:1002650005F9E528AE277802C333CE33CED8F92475
:0E027500EBF58274063EF583E493FF0205F973
:100330008F377FC012071EAE2FAF301205EEAE2FE3
:10034000AF307C007D0A1202A5ED2430FF1205F9C2
:100350007F3A1205F9AE20AF211205EEAE20AF2193
:100360007C007D0A1202A5ED2430FF1205F97F3AC8
:100370001205F9AE08AF091205EEAE08AF097C0010
:100380007D0A1202A5ED2430FF1205F97F20120527
:10039000F9E53760227F431205F97F681205F97F7E
:1003A000651205F97F631205F97F6B1205F97F6508
:1003B0001205F97F6480207F4E1205F97F6F1205C8
:1003C000F97F741205F97F521205F97F651205F95C
:0B03D0007F631205F97F761205F92209
:09073000007F027EC7DEFEDFFC43
:01073900229D
:08073A007FB47E49DEFEDFFC06
:010742002294
:10067000C292C2917F3812071E7F0C12071E7F069E
:1006800012071E7F0112071E7F8012071EE4FEFF65
:010690002247
:10071E00C2908F80120730D292120730C292E4FE3E
:02072E00FF22A8
:0B05EE007D0A7C001202A5EF2430FF04
:1005F900D2908F8000000000000000D2920000001D
:100609000000000000000000000000000000C2928D
:04061900E4FEFF22DA
:1006CF000509E50970020508643C45087007F5083F
:0D06DF00F50912061D120195AF220203302D
:10061D000532E53270020531C3943CE5319400405A
:10062D0003E4F5220521E52170020520643C4520F7
:0A063D007007F520F52112070822CE
:100708000530E5307002052F6418452F7007F52F66
:06071800F5301203DB22A4
:1003DB000528E52870020527640845277004F527D2
:1003EB00F528E52E641C452D7026E5246402452373
:1003FB00701EAE29AF2AFC7D041202A5ED4C6010D5
:10040B00E52A6464452960081206B1E4F52DF52E42
:10041B00E52E641D452D7010E524640245237008FC
:10042B001206B1E4F52DF52EE52E641E452D702830
:10043B00E524640445236018E52464064523601015
:10044B00E524640945236008E524640B4523700803
:10045B001206B1E4F52DF52EE52E641F452D70081F
:10046B001206B1E4F52DF52E052EE52E7002052DA5
:01047B00225E
:1006B100E524640C4523700D052AE52A70020529FD
:0E06C100E4F523F5240524E524700205232228
:03000B0002059B50
:10059B00C0E0C0F0C083C082C0D075D000C000C026
:1005AB0001C002C003C004C005C006C007758C4C57
:1005BB00758A12051FE51F7002051E6414451E7017
:1005CB0007F51EF51F1206CFD007D006D005D004B5
:1005DB00D003D002D001D000D0D0D082D083D0F0C5
:0305EB00D0E0322B
:0300000002050FE7
:0C050F00787FE4F6D8FD75813A020556AD
:10028300F8BB010DE58229F582E5833AF583E8F0B1
:10029300225006E92582C8F622BBFE05E92582C85D
:0202A300F22245
:1002A500C2D5EC30E709B2D5E4C39DFDE49CFCEE74
:1002B50030E715B2D5E4C39FFFE49EFE1202DBC30F
:1002C500E49DFDE49CFC80031202DB30D507C3E40A
:0602D5009FFFE49EFE22E3
:10051B00020647E493A3F8E493A34003F68001F2A9
:10052B0008DFF48029E493A3F85407240CC8C333E1
:10053B00C4540F4420C8834004F456800146F6DFB0
:10054B00E4800B0102040810204080900691E47EA9
:10055B00019360BCA3FF543F30E509541FFEE493A5
:10056B00A360010ECF54C025E060A840B8E493A36C
:10057B00FAE493A3F8E493A3C8C582C8CAC583CA97
:10058B00F0A3C8C582C8CAC583CADFE9DEE780BE4F
:0106B0000049
:1002DB00BC000BBE0029EF8DF084FFADF022E4CC07
:1002EB00F875F008EF2FFFEE33FEEC33FCEE9DECD0
:1002FB00984005FCEE9DFE0FD5F0E9E4CEFD22ED16
:10030B00F8F5F0EE8420D21CFEADF075F008EF2F5F
:10031B00FFED33FD4007985006D5F0F222C398FD50
:05032B000FD5F0EA22ED
:00000001FF
